{
  "_format": "hh-sol-artifact-1",
  "contractName": "MyEpicNFT",
  "sourceName": "contracts/MyEpicNFT.sol",
  "abi": [
    {
      "inputs": [],
      "stateMutability": "nonpayable",
      "type": "constructor"
    },
    {
      "anonymous": false,
      "inputs": [
        {
          "indexed": true,
          "internalType": "address",
          "name": "owner",
          "type": "address"
        },
        {
          "indexed": true,
          "internalType": "address",
          "name": "approved",
          "type": "address"
        },
        {
          "indexed": true,
          "internalType": "uint256",
          "name": "tokenId",
          "type": "uint256"
        }
      ],
      "name": "Approval",
      "type": "event"
    },
    {
      "anonymous": false,
      "inputs": [
        {
          "indexed": true,
          "internalType": "address",
          "name": "owner",
          "type": "address"
        },
        {
          "indexed": true,
          "internalType": "address",
          "name": "operator",
          "type": "address"
        },
        {
          "indexed": false,
          "internalType": "bool",
          "name": "approved",
          "type": "bool"
        }
      ],
      "name": "ApprovalForAll",
      "type": "event"
    },
    {
      "anonymous": false,
      "inputs": [
        {
          "indexed": false,
          "internalType": "address",
          "name": "sender",
          "type": "address"
        },
        {
          "indexed": false,
          "internalType": "uint256",
          "name": "tokenId",
          "type": "uint256"
        }
      ],
      "name": "NewEpicNFTMinted",
      "type": "event"
    },
    {
      "anonymous": false,
      "inputs": [
        {
          "indexed": true,
          "internalType": "address",
          "name": "from",
          "type": "address"
        },
        {
          "indexed": true,
          "internalType": "address",
          "name": "to",
          "type": "address"
        },
        {
          "indexed": true,
          "internalType": "uint256",
          "name": "tokenId",
          "type": "uint256"
        }
      ],
      "name": "Transfer",
      "type": "event"
    },
    {
      "inputs": [
        {
          "internalType": "address",
          "name": "to",
          "type": "address"
        },
        {
          "internalType": "uint256",
          "name": "tokenId",
          "type": "uint256"
        }
      ],
      "name": "approve",
      "outputs": [],
      "stateMutability": "nonpayable",
      "type": "function"
    },
    {
      "inputs": [
        {
          "internalType": "address",
          "name": "owner",
          "type": "address"
        }
      ],
      "name": "balanceOf",
      "outputs": [
        {
          "internalType": "uint256",
          "name": "",
          "type": "uint256"
        }
      ],
      "stateMutability": "view",
      "type": "function"
    },
    {
      "inputs": [
        {
          "internalType": "uint256",
          "name": "tokenId",
          "type": "uint256"
        }
      ],
      "name": "getApproved",
      "outputs": [
        {
          "internalType": "address",
          "name": "",
          "type": "address"
        }
      ],
      "stateMutability": "view",
      "type": "function"
    },
    {
      "inputs": [],
      "name": "getTotalNFTsMinted",
      "outputs": [
        {
          "internalType": "uint256",
          "name": "",
          "type": "uint256"
        }
      ],
      "stateMutability": "view",
      "type": "function"
    },
    {
      "inputs": [
        {
          "internalType": "address",
          "name": "owner",
          "type": "address"
        },
        {
          "internalType": "address",
          "name": "operator",
          "type": "address"
        }
      ],
      "name": "isApprovedForAll",
      "outputs": [
        {
          "internalType": "bool",
          "name": "",
          "type": "bool"
        }
      ],
      "stateMutability": "view",
      "type": "function"
    },
    {
      "inputs": [],
      "name": "makeAnEpicNFT",
      "outputs": [],
      "stateMutability": "nonpayable",
      "type": "function"
    },
    {
      "inputs": [],
      "name": "name",
      "outputs": [
        {
          "internalType": "string",
          "name": "",
          "type": "string"
        }
      ],
      "stateMutability": "view",
      "type": "function"
    },
    {
      "inputs": [
        {
          "internalType": "uint256",
          "name": "tokenId",
          "type": "uint256"
        }
      ],
      "name": "ownerOf",
      "outputs": [
        {
          "internalType": "address",
          "name": "",
          "type": "address"
        }
      ],
      "stateMutability": "view",
      "type": "function"
    },
    {
      "inputs": [
        {
          "internalType": "uint256",
          "name": "tokenId",
          "type": "uint256"
        }
      ],
      "name": "pickRandomColor",
      "outputs": [
        {
          "internalType": "string",
          "name": "",
          "type": "string"
        }
      ],
      "stateMutability": "view",
      "type": "function"
    },
    {
      "inputs": [
        {
          "internalType": "uint256",
          "name": "tokenId",
          "type": "uint256"
        }
      ],
      "name": "pickRandomFirstWord",
      "outputs": [
        {
          "internalType": "string",
          "name": "",
          "type": "string"
        }
      ],
      "stateMutability": "view",
      "type": "function"
    },
    {
      "inputs": [
        {
          "internalType": "uint256",
          "name": "tokenId",
          "type": "uint256"
        }
      ],
      "name": "pickRandomSecondWord",
      "outputs": [
        {
          "internalType": "string",
          "name": "",
          "type": "string"
        }
      ],
      "stateMutability": "view",
      "type": "function"
    },
    {
      "inputs": [
        {
          "internalType": "uint256",
          "name": "tokenId",
          "type": "uint256"
        }
      ],
      "name": "pickRandomThirdWord",
      "outputs": [
        {
          "internalType": "string",
          "name": "",
          "type": "string"
        }
      ],
      "stateMutability": "view",
      "type": "function"
    },
    {
      "inputs": [
        {
          "internalType": "address",
          "name": "from",
          "type": "address"
        },
        {
          "internalType": "address",
          "name": "to",
          "type": "address"
        },
        {
          "internalType": "uint256",
          "name": "tokenId",
          "type": "uint256"
        }
      ],
      "name": "safeTransferFrom",
      "outputs": [],
      "stateMutability": "nonpayable",
      "type": "function"
    },
    {
      "inputs": [
        {
          "internalType": "address",
          "name": "from",
          "type": "address"
        },
        {
          "internalType": "address",
          "name": "to",
          "type": "address"
        },
        {
          "internalType": "uint256",
          "name": "tokenId",
          "type": "uint256"
        },
        {
          "internalType": "bytes",
          "name": "_data",
          "type": "bytes"
        }
      ],
      "name": "safeTransferFrom",
      "outputs": [],
      "stateMutability": "nonpayable",
      "type": "function"
    },
    {
      "inputs": [
        {
          "internalType": "address",
          "name": "operator",
          "type": "address"
        },
        {
          "internalType": "bool",
          "name": "approved",
          "type": "bool"
        }
      ],
      "name": "setApprovalForAll",
      "outputs": [],
      "stateMutability": "nonpayable",
      "type": "function"
    },
    {
      "inputs": [
        {
          "internalType": "bytes4",
          "name": "interfaceId",
          "type": "bytes4"
        }
      ],
      "name": "supportsInterface",
      "outputs": [
        {
          "internalType": "bool",
          "name": "",
          "type": "bool"
        }
      ],
      "stateMutability": "view",
      "type": "function"
    },
    {
      "inputs": [],
      "name": "symbol",
      "outputs": [
        {
          "internalType": "string",
          "name": "",
          "type": "string"
        }
      ],
      "stateMutability": "view",
      "type": "function"
    },
    {
      "inputs": [
        {
          "internalType": "uint256",
          "name": "tokenId",
          "type": "uint256"
        }
      ],
      "name": "tokenURI",
      "outputs": [
        {
          "internalType": "string",
          "name": "",
          "type": "string"
        }
      ],
      "stateMutability": "view",
      "type": "function"
    },
    {
      "inputs": [
        {
          "internalType": "address",
          "name": "from",
          "type": "address"
        },
        {
          "internalType": "address",
          "name": "to",
          "type": "address"
        },
        {
          "internalType": "uint256",
          "name": "tokenId",
          "type": "uint256"
        }
      ],
      "name": "transferFrom",
      "outputs": [],
      "stateMutability": "nonpayable",
      "type": "function"
    }
  ],
  "bytecode": "0x608060405260405180610100016040528060d381526020016200479560d39139600890805190602001906200003692919062000810565b506040518060800160405280605681526020016200489160569139600990805190602001906200006892919062000810565b506040518060c001604052806040518060400160405280600881526020017f416775616361746500000000000000000000000000000000000000000000000081525081526020016040518060400160405280600481526020017f506572610000000000000000000000000000000000000000000000000000000081525081526020016040518060400160405280600781526020017f4d616e7a616e610000000000000000000000000000000000000000000000000081525081526020016040518060400160405280600681526020017f506170617961000000000000000000000000000000000000000000000000000081525081526020016040518060400160405280600581526020017f4c696d6f6e00000000000000000000000000000000000000000000000000000081525081526020016040518060400160405280600781526020017f4e6172616e6a6100000000000000000000000000000000000000000000000000815250815250600a906006620001e6929190620008a1565b506040518060c001604052806040518060400160405280600481526020017f4170696f0000000000000000000000000000000000000000000000000000000081525081526020016040518060400160405280600781526020017f4365626f6c6c610000000000000000000000000000000000000000000000000081525081526020016040518060400160405280600781526020017f447572617a6e6f0000000000000000000000000000000000000000000000000081525081526020016040518060400160405280600681526020017f546f6d617465000000000000000000000000000000000000000000000000000081525081526020016040518060400160405280600481526020017f436f636f0000000000000000000000000000000000000000000000000000000081525081526020016040518060400160405280600881526020017f50696d69656e746f000000000000000000000000000000000000000000000000815250815250600b90600662000364929190620008a1565b506040518060c001604052806040518060400160405280600881526020017f43696c616e74726f00000000000000000000000000000000000000000000000081525081526020016040518060400160405280600381526020017f557661000000000000000000000000000000000000000000000000000000000081525081526020016040518060400160405280600981526020017f4d656c6f636f746f6e000000000000000000000000000000000000000000000081525081526020016040518060400160405280600681526020017f42616e616e6f000000000000000000000000000000000000000000000000000081525081526020016040518060400160405280600781526020017f506c6174616e6f0000000000000000000000000000000000000000000000000081525081526020016040518060400160405280600781526020017f43697275656c6100000000000000000000000000000000000000000000000000815250815250600c906006620004e2929190620008a1565b506040518060c001604052806040518060400160405280600381526020017f726564000000000000000000000000000000000000000000000000000000000081525081526020016040518060400160405280600781526020017f233038433241380000000000000000000000000000000000000000000000000081525081526020016040518060400160405280600581526020017f626c61636b00000000000000000000000000000000000000000000000000000081525081526020016040518060400160405280600681526020017f79656c6c6f77000000000000000000000000000000000000000000000000000081525081526020016040518060400160405280600481526020017f626c75650000000000000000000000000000000000000000000000000000000081525081526020016040518060400160405280600581526020017f677265656e000000000000000000000000000000000000000000000000000000815250815250600d90600662000660929190620008a1565b503480156200066e57600080fd5b506040518060400160405280600881526020017f547972616e4e46540000000000000000000000000000000000000000000000008152506040518060400160405280600c81526020017f44594e4f2d4845414c54485900000000000000000000000000000000000000008152508160009080519060200190620006f392919062000810565b5080600190805190602001906200070c92919062000810565b5050506200073e60405180606001604052806029815260200162004868602991396200074460201b620012b11760201c565b62000ac2565b620007e4816040516024016200075b9190620009d6565b6040516020818303038152906040527f41304fac000000000000000000000000000000000000000000000000000000007bffffffffffffffffffffffffffffffffffffffffffffffffffffffff19166020820180517bffffffffffffffffffffffffffffffffffffffffffffffffffffffff8381831617835250505050620007e760201b60201c565b50565b60008151905060006a636f6e736f6c652e6c6f679050602083016000808483855afa5050505050565b8280546200081e9062000a4c565b90600052602060002090601f0160209004810192826200084257600085556200088e565b82601f106200085d57805160ff19168380011785556200088e565b828001600101855582156200088e579182015b828111156200088d57825182559160200191906001019062000870565b5b5090506200089d919062000908565b5090565b828054828255906000526020600020908101928215620008f5579160200282015b82811115620008f4578251829080519060200190620008e392919062000810565b5091602001919060010190620008c2565b5b50905062000904919062000927565b5090565b5b808211156200092357600081600090555060010162000909565b5090565b5b808211156200094b57600081816200094191906200094f565b5060010162000928565b5090565b5080546200095d9062000a4c565b6000825580601f1062000971575062000992565b601f01602090049060005260206000209081019062000991919062000908565b5b50565b6000620009a282620009fa565b620009ae818562000a05565b9350620009c081856020860162000a16565b620009cb8162000ab1565b840191505092915050565b60006020820190508181036000830152620009f2818462000995565b905092915050565b600081519050919050565b600082825260208201905092915050565b60005b8381101562000a3657808201518184015260208101905062000a19565b8381111562000a46576000848401525b50505050565b6000600282049050600182168062000a6557607f821691505b6020821081141562000a7c5762000a7b62000a82565b5b50919050565b7f4e487b7100000000000000000000000000000000000000000000000000000000600052602260045260246000fd5b6000601f19601f8301169050919050565b613cc38062000ad26000396000f3fe608060405234801561001057600080fd5b50600436106101215760003560e01c806370a08231116100ad578063b88d4fde11610071578063b88d4fde14610340578063c575757a1461035c578063c87b56dd1461038c578063de9d132f146103bc578063e985e9c5146103c657610121565b806370a082311461028857806395d89b41146102b8578063a22cb465146102d6578063b187301f146102f2578063b4c3b8be1461032257610121565b806323b872dd116100f457806323b872dd146101c05780632de38d68146101dc57806342842e0e1461020c578063514dc8c6146102285780636352211e1461025857610121565b806301ffc9a71461012657806306fdde0314610156578063081812fc14610174578063095ea7b3146101a4575b600080fd5b610140600480360381019061013b91906126dd565b6103f6565b60405161014d9190612e69565b60405180910390f35b61015e6104d8565b60405161016b9190612e84565b60405180910390f35b61018e6004803603810190610189919061272f565b61056a565b60405161019b9190612dd9565b60405180910390f35b6101be60048036038101906101b991906126a1565b6105ef565b005b6101da60048036038101906101d5919061259b565b610707565b005b6101f660048036038101906101f1919061272f565b610767565b6040516102039190612e84565b60405180910390f35b6102266004803603810190610221919061259b565b610885565b005b610242600480360381019061023d919061272f565b6108a5565b60405161024f9190612e84565b60405180910390f35b610272600480360381019061026d919061272f565b6109c3565b60405161027f9190612dd9565b60405180910390f35b6102a2600480360381019061029d9190612536565b610a75565b6040516102af9190613104565b60405180910390f35b6102c0610b2d565b6040516102cd9190612e84565b60405180910390f35b6102f060048036038101906102eb9190612665565b610bbf565b005b61030c6004803603810190610307919061272f565b610bd5565b6040516103199190612e84565b60405180910390f35b61032a610cf3565b6040516103379190613104565b60405180910390f35b61035a600480360381019061035591906125ea565b610d04565b005b6103766004803603810190610371919061272f565b610d66565b6040516103839190612e84565b60405180910390f35b6103a660048036038101906103a1919061272f565b610e84565b6040516103b39190612e84565b60405180910390f35b6103c4610fd6565b005b6103e060048036038101906103db919061255f565b61121d565b6040516103ed9190612e69565b60405180910390f35b60007f80ac58cd000000000000000000000000000000000000000000000000000000007bffffffffffffffffffffffffffffffffffffffffffffffffffffffff1916827bffffffffffffffffffffffffffffffffffffffffffffffffffffffff191614806104c157507f5b5e139f000000000000000000000000000000000000000000000000000000007bffffffffffffffffffffffffffffffffffffffffffffffffffffffff1916827bffffffffffffffffffffffffffffffffffffffffffffffffffffffff1916145b806104d157506104d08261134a565b5b9050919050565b6060600080546104e790613398565b80601f016020809104026020016040519081016040528092919081815260200182805461051390613398565b80156105605780601f1061053557610100808354040283529160200191610560565b820191906000526020600020905b81548152906001019060200180831161054357829003601f168201915b5050505050905090565b6000610575826113b4565b6105b4576040517f08c379a00000000000000000000000000000000000000000000000000000000081526004016105ab90613084565b60405180910390fd5b6004600083815260200190815260200160002060009054906101000a900473ffffffffffffffffffffffffffffffffffffffff169050919050565b60006105fa826109c3565b90508073ffffffffffffffffffffffffffffffffffffffff168373ffffffffffffffffffffffffffffffffffffffff16141561066b576040517f08c379a0000000000000000000000000000000000000000000000000000000008152600401610662906130c4565b60405180910390fd5b8073ffffffffffffffffffffffffffffffffffffffff1661068a611420565b73ffffffffffffffffffffffffffffffffffffffff1614806106b957506106b8816106b3611420565b61121d565b5b6106f8576040517f08c379a00000000000000000000000000000000000000000000000000000000081526004016106ef90612fc4565b60405180910390fd5b6107028383611428565b505050565b610718610712611420565b826114e1565b610757576040517f08c379a000000000000000000000000000000000000000000000000000000000815260040161074e906130e4565b60405180910390fd5b6107628383836115bf565b505050565b6060600061079b61077784611826565b6040516020016107879190612d73565b6040516020818303038152906040526119d3565b9050600a80549050816107ae9190613444565b9050600a81815481106107ea577f4e487b7100000000000000000000000000000000000000000000000000000000600052603260045260246000fd5b9060005260206000200180546107ff90613398565b80601f016020809104026020016040519081016040528092919081815260200182805461082b90613398565b80156108785780601f1061084d57610100808354040283529160200191610878565b820191906000526020600020905b81548152906001019060200180831161085b57829003601f168201915b5050505050915050919050565b6108a083838360405180602001604052806000815250610d04565b505050565b606060006108d96108b584611826565b6040516020016108c59190612db7565b6040516020818303038152906040526119d3565b9050600d80549050816108ec9190613444565b9050600d8181548110610928577f4e487b7100000000000000000000000000000000000000000000000000000000600052603260045260246000fd5b90600052602060002001805461093d90613398565b80601f016020809104026020016040519081016040528092919081815260200182805461096990613398565b80156109b65780601f1061098b576101008083540402835291602001916109b6565b820191906000526020600020905b81548152906001019060200180831161099957829003601f168201915b5050505050915050919050565b6000806002600084815260200190815260200160002060009054906101000a900473ffffffffffffffffffffffffffffffffffffffff169050600073ffffffffffffffffffffffffffffffffffffffff168173ffffffffffffffffffffffffffffffffffffffff161415610a6c576040517f08c379a0000000000000000000000000000000000000000000000000000000008152600401610a6390613004565b60405180910390fd5b80915050919050565b60008073ffffffffffffffffffffffffffffffffffffffff168273ffffffffffffffffffffffffffffffffffffffff161415610ae6576040517f08c379a0000000000000000000000000000000000000000000000000000000008152600401610add90612fe4565b60405180910390fd5b600360008373ffffffffffffffffffffffffffffffffffffffff1673ffffffffffffffffffffffffffffffffffffffff168152602001908152602001600020549050919050565b606060018054610b3c90613398565b80601f0160208091040260200160405190810160405280929190818152602001828054610b6890613398565b8015610bb55780601f10610b8a57610100808354040283529160200191610bb5565b820191906000526020600020905b815481529060010190602001808311610b9857829003601f168201915b5050505050905090565b610bd1610bca611420565b8383611a06565b5050565b60606000610c09610be584611826565b604051602001610bf59190612d0c565b6040516020818303038152906040526119d3565b9050600b8054905081610c1c9190613444565b9050600b8181548110610c58577f4e487b7100000000000000000000000000000000000000000000000000000000600052603260045260246000fd5b906000526020600020018054610c6d90613398565b80601f0160208091040260200160405190810160405280929190818152602001828054610c9990613398565b8015610ce65780601f10610cbb57610100808354040283529160200191610ce6565b820191906000526020600020905b815481529060010190602001808311610cc957829003601f168201915b5050505050915050919050565b6000610cff6007611b73565b905090565b610d15610d0f611420565b836114e1565b610d54576040517f08c379a0000000000000000000000000000000000000000000000000000000008152600401610d4b906130e4565b60405180910390fd5b610d6084848484611b81565b50505050565b60606000610d9a610d7684611826565b604051602001610d869190612cea565b6040516020818303038152906040526119d3565b9050600c8054905081610dad9190613444565b9050600c8181548110610de9577f4e487b7100000000000000000000000000000000000000000000000000000000600052603260045260246000fd5b906000526020600020018054610dfe90613398565b80601f0160208091040260200160405190810160405280929190818152602001828054610e2a90613398565b8015610e775780601f10610e4c57610100808354040283529160200191610e77565b820191906000526020600020905b815481529060010190602001808311610e5a57829003601f168201915b5050505050915050919050565b6060610e8f826113b4565b610ece576040517f08c379a0000000000000000000000000000000000000000000000000000000008152600401610ec590613064565b60405180910390fd5b6000600660008481526020019081526020016000208054610eee90613398565b80601f0160208091040260200160405190810160405280929190818152602001828054610f1a90613398565b8015610f675780601f10610f3c57610100808354040283529160200191610f67565b820191906000526020600020905b815481529060010190602001808311610f4a57829003601f168201915b505050505090506000610f78611bdd565b9050600081511415610f8e578192505050610fd1565b600082511115610fc3578082604051602001610fab929190612c4c565b60405160208183030381529060405292505050610fd1565b610fcc84611bf4565b925050505b919050565b6032610fe26007611b73565b1115611023576040517f08c379a000000000000000000000000000000000000000000000000000000000815260040161101a90612f84565b60405180910390fd5b600061102f6007611b73565b9050600061103c82610767565b9050600061104983610bd5565b9050600061105684610d66565b9050600083838360405160200161106f93929190612c70565b6040516020818303038152906040529050600061108b866108a5565b905060006008826009856040516020016110a89493929190612ca1565b604051602081830303815290604052905060006110ed846110c884611c9b565b6040516020016110d9929190612d2e565b604051602081830303815290604052611c9b565b90506000816040516020016111029190612d95565b60405160208183030381529060405290506111516040518060400160405280601581526020017f0a2d2d2d2d2d2d2d2d2d2d2d2d2d2d2d2d2d2d2d2d00000000000000000000008152506112b1565b61115a816112b1565b6111986040518060400160405280601581526020017f2d2d2d2d2d2d2d2d2d2d2d2d2d2d2d2d2d2d2d2d0a00000000000000000000008152506112b1565b6111a2338a611e59565b6111ac8982611e77565b6111b66007611eeb565b6111d9604051806060016040528060258152602001613c29602591398a33611f01565b7febb98688741ffa4c7589bf325de30cf7becb63de567842e1ccdb6cb949fdc82c338a60405161120a929190612e40565b60405180910390a1505050505050505050565b6000600560008473ffffffffffffffffffffffffffffffffffffffff1673ffffffffffffffffffffffffffffffffffffffff16815260200190815260200160002060008373ffffffffffffffffffffffffffffffffffffffff1673ffffffffffffffffffffffffffffffffffffffff16815260200190815260200160002060009054906101000a900460ff16905092915050565b611347816040516024016112c59190612e84565b6040516020818303038152906040527f41304fac000000000000000000000000000000000000000000000000000000007bffffffffffffffffffffffffffffffffffffffffffffffffffffffff19166020820180517bffffffffffffffffffffffffffffffffffffffffffffffffffffffff8381831617835250505050611fa0565b50565b60007f01ffc9a7000000000000000000000000000000000000000000000000000000007bffffffffffffffffffffffffffffffffffffffffffffffffffffffff1916827bffffffffffffffffffffffffffffffffffffffffffffffffffffffff1916149050919050565b60008073ffffffffffffffffffffffffffffffffffffffff166002600084815260200190815260200160002060009054906101000a900473ffffffffffffffffffffffffffffffffffffffff1673ffffffffffffffffffffffffffffffffffffffff1614159050919050565b600033905090565b816004600083815260200190815260200160002060006101000a81548173ffffffffffffffffffffffffffffffffffffffff021916908373ffffffffffffffffffffffffffffffffffffffff160217905550808273ffffffffffffffffffffffffffffffffffffffff1661149b836109c3565b73ffffffffffffffffffffffffffffffffffffffff167f8c5be1e5ebec7d5bd14f71427d1e84f3dd0314c0f7b2291e5b200ac8c7c3b92560405160405180910390a45050565b60006114ec826113b4565b61152b576040517f08c379a000000000000000000000000000000000000000000000000000000000815260040161152290612fa4565b60405180910390fd5b6000611536836109c3565b90508073ffffffffffffffffffffffffffffffffffffffff168473ffffffffffffffffffffffffffffffffffffffff1614806115a557508373ffffffffffffffffffffffffffffffffffffffff1661158d8461056a565b73ffffffffffffffffffffffffffffffffffffffff16145b806115b657506115b5818561121d565b5b91505092915050565b8273ffffffffffffffffffffffffffffffffffffffff166115df826109c3565b73ffffffffffffffffffffffffffffffffffffffff1614611635576040517f08c379a000000000000000000000000000000000000000000000000000000000815260040161162c90612f04565b60405180910390fd5b600073ffffffffffffffffffffffffffffffffffffffff168273ffffffffffffffffffffffffffffffffffffffff1614156116a5576040517f08c379a000000000000000000000000000000000000000000000000000000000815260040161169c90612f44565b60405180910390fd5b6116b0838383611fc9565b6116bb600082611428565b6001600360008573ffffffffffffffffffffffffffffffffffffffff1673ffffffffffffffffffffffffffffffffffffffff168152602001908152602001600020600082825461170b91906132ae565b925050819055506001600360008473ffffffffffffffffffffffffffffffffffffffff1673ffffffffffffffffffffffffffffffffffffffff168152602001908152602001600020600082825461176291906131cd565b92505081905550816002600083815260200190815260200160002060006101000a81548173ffffffffffffffffffffffffffffffffffffffff021916908373ffffffffffffffffffffffffffffffffffffffff160217905550808273ffffffffffffffffffffffffffffffffffffffff168473ffffffffffffffffffffffffffffffffffffffff167fddf252ad1be2c89b69c2b068fc378daa952ba7f163c4a11628f55a4df523b3ef60405160405180910390a4611821838383611fce565b505050565b6060600082141561186e576040518060400160405280600181526020017f300000000000000000000000000000000000000000000000000000000000000081525090506119ce565b600082905060005b600082146118a0578080611889906133fb565b915050600a826118999190613223565b9150611876565b60008167ffffffffffffffff8111156118e2577f4e487b7100000000000000000000000000000000000000000000000000000000600052604160045260246000fd5b6040519080825280601f01601f1916602001820160405280156119145781602001600182028036833780820191505090505b5090505b600085146119c75760018261192d91906132ae565b9150600a8561193c9190613444565b603061194891906131cd565b60f81b818381518110611984577f4e487b7100000000000000000000000000000000000000000000000000000000600052603260045260246000fd5b60200101907effffffffffffffffffffffffffffffffffffffffffffffffffffffffffffff1916908160001a905350600a856119c09190613223565b9450611918565b8093505050505b919050565b6000816040516020016119e69190612c35565b6040516020818303038152906040528051906020012060001c9050919050565b8173ffffffffffffffffffffffffffffffffffffffff168373ffffffffffffffffffffffffffffffffffffffff161415611a75576040517f08c379a0000000000000000000000000000000000000000000000000000000008152600401611a6c90612f64565b60405180910390fd5b80600560008573ffffffffffffffffffffffffffffffffffffffff1673ffffffffffffffffffffffffffffffffffffffff16815260200190815260200160002060008473ffffffffffffffffffffffffffffffffffffffff1673ffffffffffffffffffffffffffffffffffffffff16815260200190815260200160002060006101000a81548160ff0219169083151502179055508173ffffffffffffffffffffffffffffffffffffffff168373ffffffffffffffffffffffffffffffffffffffff167f17307eab39ab6107e8899845ad3d59bd9653f200f220920489ca2b5937696c3183604051611b669190612e69565b60405180910390a3505050565b600081600001549050919050565b611b8c8484846115bf565b611b9884848484611fd3565b611bd7576040517f08c379a0000000000000000000000000000000000000000000000000000000008152600401611bce90612ee4565b60405180910390fd5b50505050565b606060405180602001604052806000815250905090565b6060611bff826113b4565b611c3e576040517f08c379a0000000000000000000000000000000000000000000000000000000008152600401611c35906130a4565b60405180910390fd5b6000611c48611bdd565b90506000815111611c685760405180602001604052806000815250611c93565b80611c7284611826565b604051602001611c83929190612c4c565b6040516020818303038152906040525b915050919050565b60606000825190506000811415611cc45760405180602001604052806000815250915050611e54565b60006003600283611cd591906131cd565b611cdf9190613223565b6004611ceb9190613254565b90506000602082611cfc91906131cd565b67ffffffffffffffff811115611d3b577f4e487b7100000000000000000000000000000000000000000000000000000000600052604160045260246000fd5b6040519080825280601f01601f191660200182016040528015611d6d5781602001600182028036833780820191505090505b5090506000604051806060016040528060408152602001613c4e604091399050600181016020830160005b86811015611e115760038101905062ffffff818a015116603f8160121c168401518060081b905060ff603f83600c1c1686015116810190508060081b905060ff603f8360061c1686015116810190508060081b905060ff603f831686015116810190508060e01b90508084526004840193505050611d98565b506003860660018114611e2b5760028114611e3b57611e46565b613d3d60f01b6002830352611e46565b603d60f81b60018303525b508484525050819450505050505b919050565b611e7382826040518060200160405280600081525061216a565b5050565b611e80826113b4565b611ebf576040517f08c379a0000000000000000000000000000000000000000000000000000000008152600401611eb690613024565b60405180910390fd5b80600660008481526020019081526020016000209080519060200190611ee69291906123c2565b505050565b6001816000016000828254019250508190555050565b611f9b838383604051602401611f1993929190612ea6565b6040516020818303038152906040527fe3849f79000000000000000000000000000000000000000000000000000000007bffffffffffffffffffffffffffffffffffffffffffffffffffffffff19166020820180517bffffffffffffffffffffffffffffffffffffffffffffffffffffffff8381831617835250505050611fa0565b505050565b60008151905060006a636f6e736f6c652e6c6f679050602083016000808483855afa5050505050565b505050565b505050565b6000611ff48473ffffffffffffffffffffffffffffffffffffffff166121c5565b1561215d578373ffffffffffffffffffffffffffffffffffffffff1663150b7a0261201d611420565b8786866040518563ffffffff1660e01b815260040161203f9493929190612df4565b602060405180830381600087803b15801561205957600080fd5b505af192505050801561208a57506040513d601f19601f820116820180604052508101906120879190612706565b60015b61210d573d80600081146120ba576040519150601f19603f3d011682016040523d82523d6000602084013e6120bf565b606091505b50600081511415612105576040517f08c379a00000000000000000000000000000000000000000000000000000000081526004016120fc90612ee4565b60405180910390fd5b805181602001fd5b63150b7a0260e01b7bffffffffffffffffffffffffffffffffffffffffffffffffffffffff1916817bffffffffffffffffffffffffffffffffffffffffffffffffffffffff191614915050612162565b600190505b949350505050565b61217483836121e8565b6121816000848484611fd3565b6121c0576040517f08c379a00000000000000000000000000000000000000000000000000000000081526004016121b790612ee4565b60405180910390fd5b505050565b6000808273ffffffffffffffffffffffffffffffffffffffff163b119050919050565b600073ffffffffffffffffffffffffffffffffffffffff168273ffffffffffffffffffffffffffffffffffffffff161415612258576040517f08c379a000000000000000000000000000000000000000000000000000000000815260040161224f90613044565b60405180910390fd5b612261816113b4565b156122a1576040517f08c379a000000000000000000000000000000000000000000000000000000000815260040161229890612f24565b60405180910390fd5b6122ad60008383611fc9565b6001600360008473ffffffffffffffffffffffffffffffffffffffff1673ffffffffffffffffffffffffffffffffffffffff16815260200190815260200160002060008282546122fd91906131cd565b92505081905550816002600083815260200190815260200160002060006101000a81548173ffffffffffffffffffffffffffffffffffffffff021916908373ffffffffffffffffffffffffffffffffffffffff160217905550808273ffffffffffffffffffffffffffffffffffffffff16600073ffffffffffffffffffffffffffffffffffffffff167fddf252ad1be2c89b69c2b068fc378daa952ba7f163c4a11628f55a4df523b3ef60405160405180910390a46123be60008383611fce565b5050565b8280546123ce90613398565b90600052602060002090601f0160209004810192826123f05760008555612437565b82601f1061240957805160ff1916838001178555612437565b82800160010185558215612437579182015b8281111561243657825182559160200191906001019061241b565b5b5090506124449190612448565b5090565b5b80821115612461576000816000905550600101612449565b5090565b600061247861247384613144565b61311f565b90508281526020810184848401111561249057600080fd5b61249b848285613356565b509392505050565b6000813590506124b281613bcc565b92915050565b6000813590506124c781613be3565b92915050565b6000813590506124dc81613bfa565b92915050565b6000815190506124f181613bfa565b92915050565b600082601f83011261250857600080fd5b8135612518848260208601612465565b91505092915050565b60008135905061253081613c11565b92915050565b60006020828403121561254857600080fd5b6000612556848285016124a3565b91505092915050565b6000806040838503121561257257600080fd5b6000612580858286016124a3565b9250506020612591858286016124a3565b9150509250929050565b6000806000606084860312156125b057600080fd5b60006125be868287016124a3565b93505060206125cf868287016124a3565b92505060406125e086828701612521565b9150509250925092565b6000806000806080858703121561260057600080fd5b600061260e878288016124a3565b945050602061261f878288016124a3565b935050604061263087828801612521565b925050606085013567ffffffffffffffff81111561264d57600080fd5b612659878288016124f7565b91505092959194509250565b6000806040838503121561267857600080fd5b6000612686858286016124a3565b9250506020612697858286016124b8565b9150509250929050565b600080604083850312156126b457600080fd5b60006126c2858286016124a3565b92505060206126d385828601612521565b9150509250929050565b6000602082840312156126ef57600080fd5b60006126fd848285016124cd565b91505092915050565b60006020828403121561271857600080fd5b6000612726848285016124e2565b91505092915050565b60006020828403121561274157600080fd5b600061274f84828501612521565b91505092915050565b612761816132e2565b82525050565b612770816132f4565b82525050565b60006127818261318a565b61278b81856131a0565b935061279b818560208601613365565b6127a481613531565b840191505092915050565b60006127ba82613195565b6127c481856131b1565b93506127d4818560208601613365565b6127dd81613531565b840191505092915050565b60006127f382613195565b6127fd81856131c2565b935061280d818560208601613365565b80840191505092915050565b6000815461282681613398565b61283081866131c2565b9450600182166000811461284b576001811461285c5761288f565b60ff1983168652818601935061288f565b61286585613175565b60005b8381101561288757815481890152600182019150602081019050612868565b838801955050505b50505092915050565b60006128a56032836131b1565b91506128b082613542565b604082019050919050565b60006128c86025836131b1565b91506128d382613591565b604082019050919050565b60006128eb601c836131b1565b91506128f6826135e0565b602082019050919050565b600061290e600a836131c2565b915061291982613609565b600a82019050919050565b60006129316024836131b1565b915061293c82613632565b604082019050919050565b60006129546019836131b1565b915061295f82613681565b602082019050919050565b60006129776063836131c2565b9150612982826136aa565b606382019050919050565b600061299a600b836131c2565b91506129a582613745565b600b82019050919050565b60006129bd6014836131b1565b91506129c88261376e565b602082019050919050565b60006129e0602c836131b1565b91506129eb82613797565b604082019050919050565b6000612a03600d836131c2565b9150612a0e826137e6565b600d82019050919050565b6000612a266038836131b1565b9150612a318261380f565b604082019050919050565b6000612a49602a836131b1565b9150612a548261385e565b604082019050919050565b6000612a6c6029836131b1565b9150612a77826138ad565b604082019050919050565b6000612a8f602e836131b1565b9150612a9a826138fc565b604082019050919050565b6000612ab26002836131c2565b9150612abd8261394b565b600282019050919050565b6000612ad56020836131b1565b9150612ae082613974565b602082019050919050565b6000612af86031836131b1565b9150612b038261399d565b604082019050919050565b6000612b1b602c836131b1565b9150612b26826139ec565b604082019050919050565b6000612b3e602f836131b1565b9150612b4982613a3b565b604082019050919050565b6000612b61600a836131c2565b9150612b6c82613a8a565b600a82019050919050565b6000612b846021836131b1565b9150612b8f82613ab3565b604082019050919050565b6000612ba7600a836131c2565b9150612bb282613b02565b600a82019050919050565b6000612bca601d836131c2565b9150612bd582613b2b565b601d82019050919050565b6000612bed6031836131b1565b9150612bf882613b54565b604082019050919050565b6000612c106005836131c2565b9150612c1b82613ba3565b600582019050919050565b612c2f8161334c565b82525050565b6000612c4182846127e8565b915081905092915050565b6000612c5882856127e8565b9150612c6482846127e8565b91508190509392505050565b6000612c7c82866127e8565b9150612c8882856127e8565b9150612c9482846127e8565b9150819050949350505050565b6000612cad8287612819565b9150612cb982866127e8565b9150612cc58285612819565b9150612cd182846127e8565b9150612cdc826129f6565b915081905095945050505050565b6000612cf582612901565b9150612d0182846127e8565b915081905092915050565b6000612d178261298d565b9150612d2382846127e8565b915081905092915050565b6000612d3982612b54565b9150612d4582856127e8565b9150612d508261296a565b9150612d5c82846127e8565b9150612d6782612aa5565b91508190509392505050565b6000612d7e82612b9a565b9150612d8a82846127e8565b915081905092915050565b6000612da082612bbd565b9150612dac82846127e8565b915081905092915050565b6000612dc282612c03565b9150612dce82846127e8565b915081905092915050565b6000602082019050612dee6000830184612758565b92915050565b6000608082019050612e096000830187612758565b612e166020830186612758565b612e236040830185612c26565b8181036060830152612e358184612776565b905095945050505050565b6000604082019050612e556000830185612758565b612e626020830184612c26565b9392505050565b6000602082019050612e7e6000830184612767565b92915050565b60006020820190508181036000830152612e9e81846127af565b905092915050565b60006060820190508181036000830152612ec081866127af565b9050612ecf6020830185612c26565b612edc6040830184612758565b949350505050565b60006020820190508181036000830152612efd81612898565b9050919050565b60006020820190508181036000830152612f1d816128bb565b9050919050565b60006020820190508181036000830152612f3d816128de565b9050919050565b60006020820190508181036000830152612f5d81612924565b9050919050565b60006020820190508181036000830152612f7d81612947565b9050919050565b60006020820190508181036000830152612f9d816129b0565b9050919050565b60006020820190508181036000830152612fbd816129d3565b9050919050565b60006020820190508181036000830152612fdd81612a19565b9050919050565b60006020820190508181036000830152612ffd81612a3c565b9050919050565b6000602082019050818103600083015261301d81612a5f565b9050919050565b6000602082019050818103600083015261303d81612a82565b9050919050565b6000602082019050818103600083015261305d81612ac8565b9050919050565b6000602082019050818103600083015261307d81612aeb565b9050919050565b6000602082019050818103600083015261309d81612b0e565b9050919050565b600060208201905081810360008301526130bd81612b31565b9050919050565b600060208201905081810360008301526130dd81612b77565b9050919050565b600060208201905081810360008301526130fd81612be0565b9050919050565b60006020820190506131196000830184612c26565b92915050565b600061312961313a565b905061313582826133ca565b919050565b6000604051905090565b600067ffffffffffffffff82111561315f5761315e613502565b5b61316882613531565b9050602081019050919050565b60008190508160005260206000209050919050565b600081519050919050565b600081519050919050565b600082825260208201905092915050565b600082825260208201905092915050565b600081905092915050565b60006131d88261334c565b91506131e38361334c565b9250827fffffffffffffffffffffffffffffffffffffffffffffffffffffffffffffffff0382111561321857613217613475565b5b828201905092915050565b600061322e8261334c565b91506132398361334c565b925082613249576132486134a4565b5b828204905092915050565b600061325f8261334c565b915061326a8361334c565b9250817fffffffffffffffffffffffffffffffffffffffffffffffffffffffffffffffff04831182151516156132a3576132a2613475565b5b828202905092915050565b60006132b98261334c565b91506132c48361334c565b9250828210156132d7576132d6613475565b5b828203905092915050565b60006132ed8261332c565b9050919050565b60008115159050919050565b60007fffffffff0000000000000000000000000000000000000000000000000000000082169050919050565b600073ffffffffffffffffffffffffffffffffffffffff82169050919050565b6000819050919050565b82818337600083830152505050565b60005b83811015613383578082015181840152602081019050613368565b83811115613392576000848401525b50505050565b600060028204905060018216806133b057607f821691505b602082108114156133c4576133c36134d3565b5b50919050565b6133d382613531565b810181811067ffffffffffffffff821117156133f2576133f1613502565b5b80604052505050565b60006134068261334c565b91507fffffffffffffffffffffffffffffffffffffffffffffffffffffffffffffffff82141561343957613438613475565b5b600182019050919050565b600061344f8261334c565b915061345a8361334c565b92508261346a576134696134a4565b5b828206905092915050565b7f4e487b7100000000000000000000000000000000000000000000000000000000600052601160045260246000fd5b7f4e487b7100000000000000000000000000000000000000000000000000000000600052601260045260246000fd5b7f4e487b7100000000000000000000000000000000000000000000000000000000600052602260045260246000fd5b7f4e487b7100000000000000000000000000000000000000000000000000000000600052604160045260246000fd5b6000601f19601f8301169050919050565b7f4552433732313a207472616e7366657220746f206e6f6e20455243373231526560008201527f63656976657220696d706c656d656e7465720000000000000000000000000000602082015250565b7f4552433732313a207472616e736665722066726f6d20696e636f72726563742060008201527f6f776e6572000000000000000000000000000000000000000000000000000000602082015250565b7f4552433732313a20746f6b656e20616c7265616479206d696e74656400000000600082015250565b7f54484952445f574f524400000000000000000000000000000000000000000000600082015250565b7f4552433732313a207472616e7366657220746f20746865207a65726f2061646460008201527f7265737300000000000000000000000000000000000000000000000000000000602082015250565b7f4552433732313a20617070726f766520746f2063616c6c657200000000000000600082015250565b7f222c20226465736372697074696f6e223a20224120686967686c79206163636c60008201527f61696d656420636f6c6c656374696f6e206f6620737175617265732e222c202260208201527f696d616765223a2022646174613a696d6167652f7376672b786d6c3b6261736560408201527f36342c0000000000000000000000000000000000000000000000000000000000606082015250565b7f5345434f4e445f574f5244000000000000000000000000000000000000000000600082015250565b7f416c6c2068617665206265656e204d696e746564000000000000000000000000600082015250565b7f4552433732313a206f70657261746f7220717565727920666f72206e6f6e657860008201527f697374656e7420746f6b656e0000000000000000000000000000000000000000602082015250565b7f3c2f746578743e3c2f7376673e00000000000000000000000000000000000000600082015250565b7f4552433732313a20617070726f76652063616c6c6572206973206e6f74206f7760008201527f6e6572206e6f7220617070726f76656420666f7220616c6c0000000000000000602082015250565b7f4552433732313a2062616c616e636520717565727920666f7220746865207a6560008201527f726f206164647265737300000000000000000000000000000000000000000000602082015250565b7f4552433732313a206f776e657220717565727920666f72206e6f6e657869737460008201527f656e7420746f6b656e0000000000000000000000000000000000000000000000602082015250565b7f45524337323155524953746f726167653a2055524920736574206f66206e6f6e60008201527f6578697374656e7420746f6b656e000000000000000000000000000000000000602082015250565b7f227d000000000000000000000000000000000000000000000000000000000000600082015250565b7f4552433732313a206d696e7420746f20746865207a65726f2061646472657373600082015250565b7f45524337323155524953746f726167653a2055524920717565727920666f722060008201527f6e6f6e6578697374656e7420746f6b656e000000000000000000000000000000602082015250565b7f4552433732313a20617070726f76656420717565727920666f72206e6f6e657860008201527f697374656e7420746f6b656e0000000000000000000000000000000000000000602082015250565b7f4552433732314d657461646174613a2055524920717565727920666f72206e6f60008201527f6e6578697374656e7420746f6b656e0000000000000000000000000000000000602082015250565b7f7b226e616d65223a202200000000000000000000000000000000000000000000600082015250565b7f4552433732313a20617070726f76616c20746f2063757272656e74206f776e6560008201527f7200000000000000000000000000000000000000000000000000000000000000602082015250565b7f46495253545f574f524400000000000000000000000000000000000000000000600082015250565b7f646174613a6170706c69636174696f6e2f6a736f6e3b6261736536342c000000600082015250565b7f4552433732313a207472616e736665722063616c6c6572206973206e6f74206f60008201527f776e6572206e6f7220617070726f766564000000000000000000000000000000602082015250565b7f434f4c4f52000000000000000000000000000000000000000000000000000000600082015250565b613bd5816132e2565b8114613be057600080fd5b50565b613bec816132f4565b8114613bf757600080fd5b50565b613c0381613300565b8114613c0e57600080fd5b50565b613c1a8161334c565b8114613c2557600080fd5b5056fe416e204e465420772f20494420257320686173206265656e206d696e74656420746f2025734142434445464748494a4b4c4d4e4f505152535455565758595a6162636465666768696a6b6c6d6e6f707172737475767778797a303132333435363738392b2fa26469706673582212207dba9ff6e1b3705dfa0b08974f2d6747347f57b1aae3adb6cb2578f5d994bc5b64736f6c634300080400333c73766720786d6c6e733d27687474703a2f2f7777772e77332e6f72672f323030302f73766727207072657365727665417370656374526174696f3d27784d696e594d696e206d656574272076696577426f783d273020302033353020333530273e3c7374796c653e2e62617365207b2066696c6c3a2077686974653b20666f6e742d66616d696c793a2073657269663b20666f6e742d73697a653a20323470783b207d3c2f7374796c653e3c726563742077696474683d273130302527206865696768743d2731303025272066696c6c3d2754686973206973206d79204e465420636f6e74726163742e2057656c636f6d6520746f205765623321272f3e3c7465787420783d273530252720793d273530252720636c6173733d27626173652720646f6d696e616e742d626173656c696e653d276d6964646c652720746578742d616e63686f723d276d6964646c65273e",
  "linkReferences": {},
  "deployedLinkReferences": {}
}